:020000040008F2
:10000000801200201D5308003353080045480800A3
:100010006B3308000F470800D349080000000000B8
:10002000000000000000000000000000CB4A0800B3
:10003000FB4B080000000000174C0800794708003F
:10004000334C0800175108003B5108003553080095
:1000500037530800395308003B5308003D5308004C
:10006000212D08003F530800AF470800E74708006C
:1000700041530800392D08009F1D0800C91D0800C4
:1000800043530800455308003B3608004753080017
:10009000ED410800495308004B530800614A08002D
:1000A0004D5308004F5308002549080051530800DC
:0C00B0005353080055530800315308005A
:1000BC0030B4020013789B1CA520002421001D00E5
:1000CC00C9B2EDB2A94204D211784840521C641C4A
:1000DC00F4E7C0B230BC704780B5DFF8DC070068CD
:1000EC00C00725D4DFF8D407006850F08070DFF823
:1000FC00CC170860DFF8680B01F0D0F85FF03070B7
:10010C00DFF8601B08605FF0F070DFF85C1B0860C4
:10011C005FF03070DFF8541B08605FF0F070DFF8B0
:10012C00501B0860DFF84C0BDFF8641C0860F7E02C
:10013C005FF40010DFF8401B0860DFF8400B01F0A3
:10014C00ADF80020DFF86C1708600020DFF86017AE
:10015C0008600020C0B208287CDADFF8181DC0B295
:10016C00142202FB00F288541021DFF8082DC0B2D3
:10017C00142303FB00F31A4451700021DFF8F42C14
:10018C00C0B2142303FB00F31A4491700021DFF872
:10019C00E42CC0B2142303FB00F31A44D1722021C7
:1001AC00DFF8D02CC0B2142303FB00F31A441173F4
:1001BC000121DFF8C02CC0B2142303FB00F31A4456
:1001CC0051730121DFF8AC2CC0B2142303FB00F3F4
:1001DC001A4491730021DFF89C2CC0B2142303FB4A
:1001EC0000F31A44D1732021DFF8882CC0B21423F9
:1001FC0003FB00F31A4411743721DFF8782CC0B2DA
:10020C00142303FB00F31A4451740421DFF8642C0B
:10021C00C0B2142303FB00F31A4491740021DFF8DD
:10022C00542CC0B2142303FB00F31A44D1740021E4
:10023C00C9B208290CDADFF83C2CC0B2142303FB3A
:10024C0000F31A44C9B20A440023D370491CEFE7E7
:10025C00401C7FE70420DFF83C1B0870DFF8080A1D
:10026C00DFF8301B48605FF48000DFF8281B8860E3
:10027C000120DFF8201B08730320DFF8181B4873DC
:10028C000FF2AD00DFF80C1B08610FF2BD00DFF8B8
:10029C00041B4861DFF8600CDFF8F81A8861DFF89E
:1002AC005C0CDFF8F01AC8614FF48070DFF8E41AC8
:1002BC000884DFF8E00A01F0E3FBDFF8BC1B086000
:1002CC000020DFF8641C086000F048FEDFF85C0CCE
:1002DC00006840061BD5DFF8580C00F0DFFFDFF894
:1002EC009C0B00F0DBFFDFF84C0C00F0D7FF00F0AC
:1002FC00E5FFDFF8440C006830F48030DFF8381C80
:10030C000860DFF87C0BDFF8881A086008E0DFF87B
:10031C00740B00F0C3FFDFF85C09DFF8741A086097
:10032C0001BD80B5DFF8680A0068804701BD000098
:10033C0080B5DFF8E40C0068401CDFF8DC1C0860BA
:10034C0000F06CFE01BD000080B5DFF8B40B006856
:10035C00401CDFF8AC1B0860DFF8A00B0068401CE9
:10036C00DFF8981B0860DFF8940B0068DFF8CC1BF3
:10037C00884204D1DFF8800BDFF8801B0860DFF8BF
:10038C00B80B0068C00101D500F048FE01BD70B586
:10039C009AB0040010A8DFF8A81B212202F094F8F0
:1003AC000AA8DFF8A01B152202F08EF805A8DFF8CA
:1003BC00981B122202F088F86846DFF8901B112275
:1003CC0002F082F8DFF8700B006810F0407F04D068
:1003DC0010A800F063FF00209AE00020DFF8701BEB
:1003EC0008605FF40000DFF86C1B0860DFF8380B66
:1003FC000068C0070ED4DFF8580B006842F2107189
:10040C00884207D2DFF8480B0068401CDFF8401B1D
:10041C000860EBE7DFF8380B006842F21171884294
:10042C0009D35FF40000DFF8301B08600AA800F065
:10043C0035FF00206CE000F0F1FDDFF8EC0A0068FD
:10044C0040070ED4DFF8080B006842F210718842A6
:10045C0007D2DFF8FC0A0068401CDFF8F41A0860C9
:10046C00EBE75FF40000DFF8F01A0860DFF8E00A51
:10047C00006842F21171884204D30AA800F00EFF02
:10048C00002045E0DFF8740C006800780500EDB240
:10049C00A42D09D1DFF8A00A006850F08060DFF8C5
:1004AC00981A0860002033E000F06DF900F07FF935
:1004BC00DFF8740A006830F00400DFF86C1A08608A
:1004CC00EDB2A52D20D1DFF8700A006850F0007055
:1004DC00DFF8641A08602078C01C06002200310086
:1004EC00DFF89409006801F081FBDFF88C1C0860D0
:1004FC00DFF8840C0068002801D0012008E005A872
:10050C0000F0CCFE002003E0684600F0C7FE00209F
:10051C001AB070BDF0B58BB006A8DFF8281B1122FD
:10052C0001F0D2FF6846DFF8201B182201F0DCFF37
:10053C000025DFF8F4090068C00740F10C81DFF8F2
:10054C00C009006807000020DFF8041A0860DFF813
:10055C00E8090068400109D5DFF8DC09006830F0D3
:10056C008060DFF8D41908607F1E15E000F056FD9E
:10057C00DFF8B409006840070ED4DFF8D40900682E
:10058C0042F21071884207D2DFF8C4090068401C9F
:10059C00DFF8BC190860EBE7DFF8B409006842F239
:1005AC001171884205D300F0D8F806A800F076FE49
:1005BC00D1E0DFF87409006830F00400DFF8681946
:1005CC000860DFF8380B00680078A42840F08780BA
:1005DC00DFF86409006850F08070DFF85C1908607F
:1005EC0000F01CFDDFF840090068C0070ED5DFF8ED
:1005FC006009006842F21071884207D2DFF8500996
:10060C000068401CDFF848190860EBE7DFF82809A0
:10061C00006830F08070DFF820190860DFF80809F6
:10062C00006830F00400DFF800190860DFF82009DA
:10063C00006842F21071884247D2DFF8C4080068A3
:10064C00C71BDFF8B80A00680078060000F09BF8BA
:10065C00DFF8A80A00680078801C0400E4B2A01C33
:10066C00874207D0DFF8D008006850F00100DFF8AF
:10067C00C8180860DFF8840A00680078464000F06B
:10068C0082F8641EE4B2002CF4D13000DFF86C1A4E
:10069C0009680978C0B288420ED1DFF8E00A007808
:1006AC00401CDFF8D81A0870DFF8D40A0068401C28
:1006BC00DFF8CC1A08601BE0DFF8400A0068DFF8AE
:1006CC00C41A086000F073F812E0DFF8BC0A006886
:1006DC00401CDFF8B41A08600120050008E0DFF8C0
:1006EC00AC0A0068401CDFF8A41A08600120050061
:1006FC00EDB2002D2DD0684600F0D0FDDFF82808B3
:10070C000068C00710D5DFF84808006842F2107185
:10071C00884209D2DFF838080068401CDFF830182E
:10072C00086000F07BFCE9E7DFF8D0070068DFF831
:10073C00CC190860DFF8C4070068DFF8481A0860B5
:10074C00DFF8E407006830F00600DFF8DC1708601B
:10075C0001E000F018F80BB0F0BD72B6DFF89807A6
:10076C00DFF898170860DFF89007DFF89019086039
:10077C00DFF88407DFF80C1A08600020DFF8FC199A
:10078C00087062B67047DFF874090068401CDFF827
:10079C006C190860DFF864090068DFF8A01788425C
:1007AC0004D1DFF85407DFF8541908607047DFF8FC
:1007BC00D4090068401CDFF8CC190860DFF8C409C4
:1007CC000068DFF87817884204D1DFF82C07DFF8CF
:1007DC00B41908607047F8B505000E000024012715
:1007EC00324800680090DFF840070068C00709D560
:1007FC00E4B2002C06D14FF47A71684601F0B8FED1
:10080C000400F0E7E4B2002C1FD1DFF88409006883
:10081C0030F00070DFF87819086000F073FB0020EE
:10082C00DFF854190860214800680090DFF8F806DA
:10083C000068C00709D4E4B2002C06D14FF47A71D9
:10084C00684601F095FE0400F0E7E4B2002C27D1D5
:10085C00FFF760FEDFF824090078002820D0DFF8CD
:10086C00240900688078402810D1DFF81809006846
:10087C0000792900C9B2884212D1DFF80809006852
:10088C00407900280CD10020070009E0DFF8F408BB
:10089C00006880782900C9B2884201D10020070085
:1008AC0000F00EF83800C0B2F2BD0000782F002026
:1008BC00342F0020FC2E00203C0E0E40802F0020F8
:1008CC0070B588B0DFF8B4080078002801D1012099
:1008DC00C4E1DFF8C0080068401CDFF8B8180860F5
:1008EC00DFF898080078401EDFF890180870FFF7C2
:1008FC005EFFDFF89008006800780400E4B2122C68
:10090C0001DB0120AAE10026F6B2E4B2E01C86422B
:10091C000ADADFF87008006800786946F6B2885584
:10092C00FFF745FF761CEFE79DF8020005009DF8E8
:10093C0001003E2800F06C8140280CD04E2800F0BD
:10094C005B814F2800F05881522800F060816F289D
:10095C0000F0728179E19DF80300012800F0BF805E
:10096C00DFF8340805709DF80300DFF82C18487088
:10097C009DF80400DFF8201888709DF803004128CA
:10098C0046D04B2807D04C2837D05B2861D1DFF8F4
:10099C000C0800F083FC15F13000DFF80418087324
:1009AC00DFF8FC0700F07AFC9DF80400002823D146
:1009BC00DFF8C004EDB2142101FB05F10844C07C42
:1009CC0050F00400DFF8AC14EDB2142202FB05F277
:1009DC001144C874DFF89C04EDB2142101FB05F13D
:1009EC000844C07C10F0FD00DFF88814EDB214222E
:1009FC0002FB05F21144C8745BE09DF80200303034
:100A0C00DFF8A0170873DFF89C0700F047FC50E0F4
:100A1C009DF802003030DFF890170873DFF8880774
:100A2C0000F03CFC9DF80400002811D1DFF84404D0
:100A3C00EDB2142101FB05F10844C07C10F0FE005E
:100A4C00DFF83014EDB2142202FB05F21144C87425
:100A5C002FE09DF802003030DFF8501708739DF836
:100A6C000300C0B2000901F09FFDDFF840170876C3
:100A7C009DF8030010F00F0001F096FDDFF82C1725
:100A8C0048769DF80400C0B2000901F08DFDDFF836
:100A9C001C1781F824009DF8040010F00F0001F0E1
:100AAC0083FDDFF8081781F82500DFF8000700F058
:100ABC00F5FB9DF80400002804D1DFF8740400F065
:100ACC00EDFB98E0DFF8E80600F0E8FBDFF8C00685
:100ADC00006850F00200DFF8B81608608BE09DF853
:100AEC00040000280ED001285CD002280ED0032868
:100AFC0033D005283ED0062850D0072856D00828D9
:100B0C0027D068E0684600F0BFF974E0DFF8A4066F
:100B1C000078401CDFF89C160870DFF89806007807
:100B2C00002812D1DFF890060078401CDFF88816F8
:100B3C000870DFF884060078002806D1DFF87C0600
:100B4C000078401CDFF874160870684600F09CF9B9
:100B5C0051E0684600F098F94DE0C648EDB214211A
:100B6C0001FB05F108444078102802D1684600F0DA
:100B7C008BF940E0BF48EDB2142101FB05F10844AC
:100B8C00C07C50F01000BB49EDB2142202FB05F200
:100B9C001144C874684600F077F92CE0684600F000
:100BAC0073F928E0684600F06FF924E0DFF81006CE
:100BBC0000F074FBAF48EDB2142101FB05F10844C1
:100BCC00C07C10F0FB00AB49EDB2142202FB05F225
:100BDC001144C8740FE09DF8040000F07DFBDFF8B1
:100BEC00E40500F05BFBDFF8A805006850F004009A
:100BFC00DFF89C15086030E005A9684600F040F865
:100C0C0005AA0DF10301012000F0C6F825E024E04F
:100C1C000020C0B20A2808DA6946C0B201448978BB
:100C2C00C44AC0B21154401CF3E7C048006850F0ED
:100C3C004000BE49086010E0DFF85405006850F42D
:100C4C008030DFF84C15086007E0DFF844050068D9
:100C5C0050F00800DFF838150860002008B070BDAF
:100C6C00B8000020000C0E40000E0E40140C0E407C
:100C7C00140E0E402D120800100E0E4080000020A5
:100C8C002DE9F84F04000D0000265FF0000A4FF626
:100C9C00FF79FF208DF80200FF275FF0FF384FF639
:100CAC00FF7B20788DF80000A0788DF803009DF86C
:100CBC000000092803D100208DF8010058E09DF8B0
:100CCC000000122803DA9DF80000092807DADFF883
:100CDC00F80400F0E3FA00208DF8010048E0E07A17
:100CEC00060001208DF80100300621D55FFA8AFA42
:100CFC0004EB0A00007B81461AF1010A5FFA8AFABA
:100D0C0004EB0A00007B59EA00291AF1010A5FFA88
:100D1C008AFA04EB0A00007B8DF802001AF1010A32
:100D2C005FFA8AFA04EB0A00007B07001AF1010A49
:100D3C0070060CD51AF1010A5FFA8AFA04EB0A0064
:100D4C0090F90C0080461AF1010A1AF1010AB0065A
:100D5C000ED55FFA8AFA04EB0A00007B83461AF17F
:100D6C00010A5FFA8AFA04EB0A00007B5BEA002BAB
:100D7C006E709DF803002870A5F802909DF8020093
:100D8C0028716F7185F806809DF80100BDE8F28F1F
:100D9C00002F0020FC2D00202DE9F0438BB0050026
:100DAC000E0017005FF000096846DFF820142B22B4
:100DBC0001F08AFB1C2001F00DFC0400002C04D176
:100DCC00684600F06BFA002050E00020C0B2082802
:100DDC0007DAC0B2315CC0B204EB00029171401C66
:100DEC00F4E7DFF8EC030068206025713878A07315
:100DFC00788820823879A0747879E0747878E073F8
:100E0C00B87920750020A061DFF8C80300680028BD
:100E1C000AD1DFF8C0030460DFF8BC030068401C93
:100E2C00DFF8B413086020E0DFF8A8030068804600
:100E3C00D8F81800002804D0D8F8188019F1010946
:100E4C00F6E75FFA89F9B9F1200F09D2C8F8184012
:100E5C00DFF884030068401CDFF87C13086004E0B2
:100E6C00684600F01BFA002000E001200BB0BDE842
:100E7C00F0830000802A0020202F0020CC52080094
:100E8C0059100800980000201FB50400FF208DF8B1
:100E9C000000A0788DF80100E0788DF80200207930
:100EAC008DF80300FF208DF80400DFF810030078A4
:100EBC008DF80500C04800788DF80600BD48007814
:100ECC008DF807009DF801008DF80800FF20ADF8A3
:100EDC000A00FF208DF80C00FF208DF80D005FF04C
:100EEC00FF308DF80E00FF208DF8090002AA69462C
:100EFC000220FFF751FF1FBD80290020242F002066
:100F0C00102F002010B5B548006800280AD0B3484F
:100F1C0000680400B14800688069B049086020008E
:100F2C0001F0EAFB10BD0000C02F0020842F002030
:100F3C0004000020D02E0020F42E0020802A002057
:100F4C00B04D08005051080040520800545208009F
:100F5C00042F0020340E0E40300E0E4010B582B01F
:100F6C0000249F489F4908609D48644908609C483C
:100F7C0084490860002081490870954800680090F9
:100F8C005FF40010984908605FF40000974908600E
:100F9C005FF08070954908606421684601F0E8FABA
:100FAC000028F9D05FF40010904908608848006868
:100FBC0000904FF47A71684601F0DAFA0028F8D004
:100FCC008348006800908A480068C00709D4E4B2DE
:100FDC00002C06D14FF47A71684601F0C9FA04006E
:100FEC00F1E7E4B2002C10D1FFF794FAFFF768FC9C
:100FFC008048FFF75DF87F4908717E48FFF7C7F915
:10100C004FF47A713E20FFF7E6FBE4B2002C02D0DD
:10101C00794800F043F913BD0C2F00200020C8289C
:10102C0001D2401CFBE75FF080706F490860002024
:10103C00142801D2401CFBE75FF080706B490860FC
:10104C0070470000685208006851080070B5012410
:10105C0000254F48006800041CD0684800F01EF9B9
:10106C000026F6B2042E0FDA49480068204207D059
:10107C006348EDB2142101FB05F1084400F00EF9B0
:10108C0064006D1C761CECE741480068000C000401
:10109C003F490860FFF714FC55480068C00704D5A9
:1010AC000FF24100574908601AE0334800680028E5
:1010BC0016D14A480068002812D048480068001D24
:1010CC00FFF765F9002808D0414800684E490860D0
:1010DC000FF22D004B49086002E04C4800F0DEF89E
:1010EC0070BD000080B54A480068401C4849086043
:1010FC00FFF710FA47484349086001BD282F00202C
:10110C0010B51D48006801F0F9FA0400E4B22000A3
:10111C00032804D004282ED13F4800F0BFF8FFF775
:10112C00F1FE0020144908601948006830F0007086
:10113C00174908602E480068C0070BD53248006874
:10114C0042F21071884205D22F480068401C2E498B
:10115C000860EFE73148006842F21171884206D30B
:10116C0023480068C00702D5FFF758FFF8E7294865
:10117C0024490860FFE710BD1C2F002021300020FF
:10118C003C2F00202C2F0020142F0020182F002083
:10119C00F42E0020402F0020F82E0020EC520800E6
:1011AC006C00002054000020140000202C000020B3
:1011BC000C0000202430002023300020223000209E
:1011CC007C520800C84F0800D44D08005C4D080044
:1011DC00782F0020FC2E0020302F0020342F0020F0
:1011EC0080290020242F0020340E0E40300E0E409B
:1011FC00C02F0020F400002090520800FC000020BA
:10120C000C010020002F0020082F00208051080026
:10121C00382F002059100800E84F0800042F002038
:10122C007047F0B4034618689D681A18586802EBAA
:10123C005004C00721D54D441FE0F0BC03F10C0055
:10124C00704712F8017B05F8017B491EF9D1A0B15A
:10125C00B60812F8011B06F00306032E08BF12F89D
:10126C00016B01EB06214942801C294405D011F881
:10127C00016B05F8016B401EF9D1A242DDD012F8CA
:10128C00016B16F0030104BF12F8011BC91C3009D5
:10129C000F28DAD112F8010B0F30D6E710B5020087
:1012AC00140000212078002802D0491C641CF9E7A6
:1012BC00DFF80407006801F06AFC10BD80B5DFF8A8
:1012CC00FC060088ADF800006A460221DFF8E8064B
:1012DC00006801F05CFC01BD2DE9FE430600002412
:1012EC000027DFF8DC960020C0B20A2819DAB6FB1A
:1012FC00F9F130316A46C0B211546946C0B2095C8A
:10130C00302901D001210C00E4B2002C00D07F1C4C
:10131C00B6FBF9F109FB11660A21B9FBF1F9401C86
:10132C00E2E7E4B2002C01D101200700FFB2380043
:10133C0001F050F90500002D08D10220DFF88416C9
:10134C0008700FF24160DFF88016086009208046B3
:10135C003800C0B200280BD0694611F80810C0B292
:10136C0005EB000202F8011CB8F10108401EF0E781
:10137C002A00FFB23900DFF84006006801F007FCD4
:10138C00280001F0B9F9BDE8F78370B598B068464C
:10139C00DFF84416132201F097F805A8DFF83C1685
:1013AC00482201F0A1F80125012405A8FFF776FFDA
:1013BC000026F6B2072E14DADFF824060068054280
:1013CC000CD100200400DFF81C06F6B20A2101FB48
:1013DC0006F10844FFF762FFFFF770FF6D00761C03
:1013EC00E7E7E4B2002C02D06846FFF757FFFFF79F
:1013FC0065FF18B070BD00B58BB004A8DFF8E81518
:10140C001C2201F071F8002080B2802806DA00213D
:10141C00DFF8D82580B21154401CF5E7DFF8CC0575
:10142C00DFF8CC150860DFF8C405DFF8C8150860D4
:10143C000020DFF8981508700020C0B2802806DA6A
:10144C000021DFF88C25C0B21154401CF5E7DFF801
:10145C00A805DFF8A815086002208DF80000DFF859
:10146C008C050190DFF88C0502908020ADF802000D
:10147C000FF261000390684601F0FAFADFF83815B4
:10148C000860DFF834050068002805D10FF2F5403C
:10149C00DFF83415086013E0DFF86405FFF7FEFE93
:1014AC0004A8FFF7FBFEDFF83805006850F00400D5
:1014BC00DFF82C1508600FF26920DFF80C150860B6
:1014CC000BB000BD80B5DFF800050068804701BD9A
:1014DC0000000000DFF81C050068401CDFF8141544
:1014EC000860DFF810050068DFF81815884204D191
:1014FC00DFF8F804DFF8FC1408607047DFF8080523
:10150C000078401CDFF800150870DFF8FC04007848
:10151C00102803D10020DFF8F0140870704710B5C4
:10152C0092B00AA8DFF8E414192200F0CDFF3A209B
:10153C008DF8020020208DF803000A208DF824007D
:10154C000D208DF8250000208DF826000AA8FFF745
:10155C00A5FE0024E4B2082C2CDAE4B20A2C07DB3A
:10156C00E4B20A2094FBF0F030308DF8000002E079
:10157C0030208DF80000E4B20A2094FBF0F100FB5F
:10158C00114030308DF801000020C0B220280CDA58
:10159C00DFF87C14E4B251F83410C0B2095C6A462E
:1015AC00C0B202441171401CEFE76846FFF776FEAB
:1015BC00641CCFE7FFF782FE12B010BD10B584B0EB
:1015CC006846DFF8501491E81C0080E81C0068465F
:1015DC00FFF764FE1FBD10B584B06846DFF8381401
:1015EC0091E81C0080E81C006846FFF757FEDFF806
:1015FC00E4030078C0070CD5DFF8D8030068400876
:10160C004000DFF8D0130860DFF81004FFF746FE47
:10161C0023E0DFF8C003006850F00100DFF8B413DA
:10162C000860DFF8FC03FFF739FE002001F0A6FC90
:10163C00012001F0A3FC022001F0A0FC032001F02A
:10164C009DFC042001F09AFC052001F097FC06207B
:10165C0001F094FC072001F091FC1FBD70B5050052
:10166C000124EDB22800422814D0432815D0472875
:10167C0016D04F281AD0502809D0522819D05728E4
:10168C0002D059280FD017E00020060016E00120E8
:10169C00060013E00220060010E0032006000DE017
:1016AC00042006000AE00520060007E006200600DC
:1016BC0004E00720060001E000200400E4B2002C46
:1016CC0003D03000C0B201F0AAFC70BD00B589B0E7
:1016DC006846DFF85013232200F0F6FE6846FFF749
:1016EC00DDFDDFF8F002007880070CD5DFF8E402AE
:1016FC00006830F00200DFF8DC120860DFF81C0331
:10170C00FFF7CCFD09E0B348006850F00200B14986
:10171C000860DFF80C03FFF7C1FD09B000BD000045
:10172C0070B50024DFF8C8020068DFF8C812096839
:10173C00884200F0AD80E4B2002C40F0A980AC48A7
:10174C00006800780500EDB22800082802D00D28AA
:10175C003AD043E09F48007840070DD59B4800786D
:10176C00802826DA9A489949097845549748007890
:10177C00401C964908701CE094480078002809D059
:10178C0092480078401E91490870002090498F4A79
:10179C0012788854994800689749884209D097482C
:1017AC000068401E954908609F480088401E9E496D
:1017BC0008809E48FFF772FD9D49934A127841F8C4
:1017CC002200FFF79BFE4CE082480078400705D4CE
:1017DC00012004000FF2E1007B4908607B4800788F
:1017EC00802808DA7A48794909784554774800788E
:1017FC00401C764908702900C9B26F48006801F096
:10180C00AEF98B49804A127841F82200FFF776FE38
:10181C0070480078400724D47848006805707748F1
:10182C000068401C754908607F480088401C7E4950
:10183C000880724800687F49884212D3EDB20D2DA2
:10184C000FD06D486D4908600020774908807A48B0
:10185C00FFF724FD76496C4A127841F82200FFF715
:10186C004DFE5C480078C00703D52800C0B2FFF7D6
:10187C00F5FE5F480068401C5D4908605C480068E4
:10188C0060498842FFF44EAF58485949086049E70F
:10189C0000200600F6B2102E0DDA6548F6B250F8AC
:1018AC002600002807D06248F6B250F8260000F057
:1018BC0025FF761CEEE770BD70B5012400200500F5
:1018CC004D48EDB2405D5D49EDB2495D884201D0B5
:1018DC00002004006D1CE4B2002C02D0EDB2042DEB
:1018EC00EEDBE4B2002C2ED0002004004248EDB216
:1018FC004057303806006D1C76B2002E23D476B2D9
:10190C000A2E20DA0A2000FB06F04D4908703A48EE
:10191C00EDB24057303806006D1C76B2002E12D452
:10192C0076B20A2E0FDA464800783018444908700F
:10193C0043480078082806DA2F48EDB2405D0D28A0
:10194C0001D101200400E4B2002C04D00FF21D00E0
:10195C001D49086005E03B48FFF7A0FC3A481A49CE
:10196C00086025482549086070BD000080B53648E0
:10197C001549086026483249097800EBC1004068D7
:10198C00804701BD80B51348006850F000401149F4
:10199C0008602E48FFF782FC0A480078FFF79CFC91
:1019AC00FFF78CFC0020204908801348134908607D
:1019BC0025480549086001BD542F00207A250800F0
:1019CC0000CA9A3B26300020502F002025300020E2
:1019DC00202B00204C2F0020B85208008C4C080003
:1019EC00842F0020D44C0800C4500800A02B0020E9
:1019FC005C2F0020582F0020B82C0020602F0020D6
:101A0C009C010020202C002027300020E0500800F2
:101A1C005C010020F85208000453080074020020F6
:101A2C006C020020184F08001C300020D40100204C
:101A3C00782C0020F82C0020D8010020F801002080
:101A4C0028300020000200202D170800240200205E
:101A5C00012210F01F018A40DFF8F01940B2030098
:101A6C005B0941F823207047012210F01F018A40C6
:101A7C00DFF8DC1940B203005B0941F82320704702
:101A8C002DE9F04704002078022804D034D3042830
:101A9C0021D010D330E0DFF8BC090500502006003F
:101AAC004FF40C600700082080467FF00800814648
:101ABC001A20824622E0DFF8A0090500502006001B
:101ACC00DFF898090700002080465FF0FF30814660
:101ADC003020824612E0DFF888090500502006000D
:101AEC00DFF8800907005FF4002080467FF40020B7
:101AFC0081460020824601E0002075E02869C00282
:101B0C0001D5002070E0DFF860090168012295F929
:101B1C00280082401143DFF850090160606868605A
:101B2C00A068A860207B2873607B6873A069E8615B
:101B3C00E0692862208CA884286950F48010286100
:101B4C00206968616069A861286806602868476038
:101B5C002868C0F808802868C0F80C902868C0F87D
:101B6C0020A0687B02282DD1A0692968C1F800014A
:101B7C00A069401C2968C1F8100101202968C1F82E
:101B8C00040101202968C1F8140100202862DFF843
:101B9C00DC082968C1F80801DFF8D0082968C1F809
:101BAC00180101202968C1F80C0101202968C1F82D
:101BBC001C0140F201102968C1F82001DFF8B008BF
:101BCC0029688860687B032803D15FF400202968AA
:101BDC00886095F9280040B2FFF746FF95F9280078
:101BEC0040B2FFF735FF2800BDE8F087F8B50500D7
:101BFC000E001700E88C002801D0002012E03A00FB
:101C0C00310015F12C0000F007FE0400002C01D16E
:101C1C00002007E0DFF860080068002801D500F01C
:101C2C008EF82000F2BD80B5DFF85008DFF82418DC
:101C3C0008600D20DFF81C1881F828000020DFF860
:101C4C00141848600020DFF80C18C8620020DFF878
:101C5C000418C8610020DFF8FC1788840020DFF826
:101C6C00F41708620020DFF8EC170861DFF81008A1
:101C7C00DFF8E41708600E20DFF8DC1781F8280085
:101C8C000020DFF8D41748600020DFF8CC17C862BA
:101C9C000020DFF8C417C8610020DFF8BC17888467
:101CAC000020DFF8B41708620020DFF8AC170861D9
:101CBC00DFF8D007DFF8A81708600F20DFF8A017AF
:101CCC0081F828000020DFF8981748600020DFF822
:101CDC009017C8620020DFF88817C8610020DFF871
:101CEC00801788840020DFF8781708620020DFF85E
:101CFC0070170861DFF85C07DFF88C1708600020AC
:101D0C00DFF8881708600020DFF8841708600020CF
:101D1C00DFF8801708600020DFF87C1708600FF2EE
:101D2C004150DFF850170860DFF87007FFF7B6FA7C
:101D3C0001BD80B5DFF83C070068804701BD80B568
:101D4C00DFF84807006850F00100DFF84017086022
:101D5C00DFF80007DFF830170860DFF8300700788D
:101D6C00C00715D5DFF83807DFF838170860DFF83B
:101D7C0004070068804700F04AFDDFF82C07006874
:101D8C0000900121684600F0F3FB0028E5D1F8E74C
:101D9C0001BD80B5DFF8C006DFF810170860DFF86A
:101DAC00F406DFF80C170860DFF808070068401C21
:101DBC00DFF80017086000F016F801BD80B5DFF8F9
:101DCC00A006DFF8E8160860DFF8CC06DFF8E016AE
:101DDC000860DFF8E4060068401CDFF8DC160860D9
:101DEC0000F001F801BD70B5DFF8C00600680068AE
:101DFC0040690600DFF8B40600680068006900035B
:101E0C0040F19F80300340F19C80DFF8A006006811
:101E1C004068C06BDFF8941609688968084238D1AD
:101E2C00DFF88C060068006850F00100DFF88016BF
:101E3C0009680860DFF878060068006830F0060072
:101E4C00DFF86C1609680860DFF860060068407BF4
:101E5C0002280BD1DFF854060068C06A002805D1AF
:101E6C000020DFF8481609680968C861DFF83C06ED
:101E7C000068407B032864D1DFF8300600680068F6
:101E8C00806850F00100DFF8241609680968886042
:101E9C0057E0DFF81C060068006840084000DFF8D7
:101EAC00101609680860DFF80406006800698002F3
:101EBC0027D51020DFF8F41509680968C860DFF829
:101ECC00EC050068006930F40010DFF8E0150968D3
:101EDC0008610521DFF8D4050068C06A006800F0CD
:101EEC0063FDDFF8C80500682C3000F032FDDFF828
:101EFC00C0050068006850F00200DFF8B4150968EE
:101F0C000860DFF8A8050068407B02280DD101208D
:101F1C00DFF8981509680968C1F804010120DFF899
:101F2C008C1509680968C1F81401DFF88005006890
:101F3C00407B032805D10120DFF87015096809687A
:101F4C008860DFF8680500680068006980056AD55C
:101F5C00B00568D5DFF854050068006B401EDFF84B
:101F6C004C1509680863DFF844050068006880694F
:101F7C000400DFF838050068006B00281FD0DFF87C
:101F8C002C050068406B401CDFF82015096848637D
:101F9C00DFF818050068406B00780400DFF80C05CA
:101FAC000068007B012802D194FAA4F4240E2000CE
:101FBC00C0B2DFF8F81409680968C8612EE04FF464
:101FCC000070DFF8E81409680968C860DFF8E004FD
:101FDC000068006850F00200DFF8D414096808604B
:101FEC000321DFF8C8040068C06A006800F0DCFC5C
:101FFC00DFF8B80400682C3000F0ABFCDFF8AC0460
:10200C000068006930F40010DFF8A014096808615A
:10201C000120DFF89814096809688860DFF88C04DF
:10202C00006840698047DFF8840400680068006934
:10203C00C00737D5DFF87404006800684069C00732
:10204C0030D5DFF8680400680068806900F0FF0094
:10205C000400DFF858040068007B012802D194FAD0
:10206C00A4F4240E2000C0B2FF2806D1DFF84C04E3
:10207C000068401CDFF844140860DFF83004006886
:10208C00006A00680470DFF828040068006850F0EB
:10209C000400DFF81C1409680860DFF810040068FD
:1020AC0080698047DFF80404006800680069000755
:1020BC0040F18580300740F18280DFF8F003006842
:1020CC00407B002805D0DFF8E4030068407B012842
:1020DC003DD10020DFF8D4130968C884DFF8CC03A5
:1020EC000068006930F48000DFF8C01309680861EB
:1020FC00DFF8B8030068006950F40000DFF8AC1397
:10210C0009680861DFF8B8030068401CDFF8B013F9
:10211C000860DFF874030068407B002808D1DFF802
:10212C008C0300688068DFF88413096849680863C9
:10213C0040F20220DFF8741309680968C1F8200125
:10214C000820DFF8681309680968C86037E0DFF811
:10215C0060030068006850F00400DFF8541309684D
:10216C000860DFF8480300680068D0F81001401CD4
:10217C00DFF8381309680968C1F81001DFF82C037F
:10218C0000680068D0F80001DFF820130968C969FD
:10219C00DFF818231268928C1144884209D1DFF8B9
:1021AC000C030068C069DFF8041309680968C1F8FA
:1021BC0000010120BD4909680968C1F81401BB4838
:1021CC00006800680069C00648D5F00646D5B748D7
:1021DC0000680069800213D50321B4480068C06A06
:1021EC00006800F0E1FBB14800682C3000F0B1FB56
:1021FC00AE480068006930F40010AC490968086109
:10220C00AA480068407B002804D0A8480068407B9E
:10221C0001280BD14FF40070A44909680968C1F872
:10222C0020011020A14909680968C8600020050038
:10223C009E48006800684069800503D4642D01D273
:10224C006D1CF5E790480068407B002806D1974844
:10225C0000688068954909684968086370BD00008A
:10226C00F8B589480068C06A002805D1864800681E
:10227C00C08C002800F0C68083480068006910F408
:10228C00C00F40F0BF8080480068407B002806D11A
:10229C007D48006880687C490968496848637A48C9
:1022AC000068C08C002840D077480068006950F462
:1022BC00800075490968086173480068858C0026A0
:1022CC0071480068C76932002900380001F014F821
:1022DC006D480068C0696C4909680968C1F800015B
:1022EC0069480068C069684909680968C1F808014B
:1022FC0065480068C08C644909680968C1F8040124
:10230C0061480068C08C604909680968C1F80C0113
:10231C0008205D4909680968886040F201105A4933
:10232C0009680968C1F820016CE002215648006870
:10233C00C06A006800F038FB53480068006950F42C
:10234C0000105149096808614F480068407B032818
:10235C003AD14D480068C06A40684B490968086327
:10236C0049480068C06A08304749096848634648CC
:10237C000068406B0078040043480068007B01282B
:10238C0002D194FAA4F4240E01203F49096809688B
:10239C00C86008203C4909680968086040203A492F
:1023AC000968096808602000C0B2374909680968E3
:1023BC00C8614FF400703449096809688860324874
:1023CC000068406980471DE02F480068C06A0830EB
:1023DC002D4909680968C1F808012B480068C06AD2
:1023EC004068294909680968C1F80C011020264980
:1023FC000968096888604FF4807023490968096886
:10240C00C1F820012048006890F828000D2804D05D
:10241C0015D30F2809D004D311E00F481A490860CE
:10242C0013E00F48184908600FE00A481649086085
:10243C0016480068400840001449086005E021482F
:10244C00FEF72CFF034810490860F1BD00E100E0E5
:10245C0080E200E0F82C0020302D0020CE18450042
:10246C00682D0020FF18410010040E402B30002076
:10247C0018000800C42F0020802F00200000094005
:10248C000040094000800940CC2F0020C82F0020BC
:10249C00B82F0020BC2F0020C02F0020F8510800BE
:1024AC00010000A550120E40782F0020D02F0020E4
:1024BC00D42F0020D82F0020DC2F0020E02F00206C
:1024CC00E42F00201052080062B38B0708D0521E74
:1024DC0011F8013B00F8013B00F024808B07F6D18A
:1024EC00830740F0208000BF103A07D330B4B1E826
:1024FC003810103AA0E83810F9D230BC530724BF7A
:10250C00B1E80810A0E8081044BF51F8043B40F8AB
:10251C00043BD20724BF31F8022B20F8022B44BF16
:10252C000B7803707047121F17D35B0009D151F859
:10253C00043B20F8023B1B0C121F20F8023BF6D286
:10254C000BE051F8043B00F8013B1B0A20F8023B5E
:10255C001B0C121F00F8013BF3D238BF121D521E88
:10256C0024BF11F8013B00F8013BF8D870470A0D65
:10257C0010B40200164800681468A04205D3144831
:10258C0004681068241A230007E05FF0FF34106819
:10259C00241A0F480068041923008B4201D2002032
:1025AC0000E0012010BC70470100FF20C9B20A29CD
:1025BC0003DA11F13002100008E0C9B20A2905DB78
:1025CC00C9B2102902DA11F157021000C0B27047DB
:1025DC00782F0020F8B5054605F10F04E408AFF399
:1025EC000080E400A54242D2082C04D2082402E068
:1025FC00083000F040F8DFF8FC603568290005D1A0
:10260C00002007E00268A24223D2011D08680028BE
:10261C00F8D12868311D0A68824224D01368A3427D
:10262C0038BF111DF7D314E03A190A60001B7B6800
:10263C0053600A6810603C60096800291DBF486837
:10264C000028081D00203060AFF3008007F108005F
:10265C00F2BD61B10F683868A0F10802A242E3D262
:10266C0078680860E8E700F07BFE0028C0D1AFF383
:10267C0000800020F2BD00B9704738B5A0F1080405
:10268C00206807282AD910F0070F27D1AFF3008054
:10269C00184A516809B18C4202D2616054600EE054
:1026AC004868E0B1A04238BF0146F9D317E048684A
:1026BC0018B12368234498420ED360604C60606864
:1026CC0050B12368E118814206D1002111600168E4
:1026DC00CB18236040686060AFF3008031BD0D689B
:1026EC0048198442F8D3A042E1D1206845190D6005
:1026FC000C46E4E7E82E0020FFF7BDBF0100FF20E9
:10270C00DFF8102313688B4205D0DFF80C339A42A4
:10271C0001D00C32F6E7DFF800339A4211D013796E
:10272C001800C0B2032805D0C0B2042802D0C0B231
:10273C00052806D10023136000231371B74B1B68C7
:10274C009360C0B270470020B54908700120B549AC
:10275C0008600020C0B2202831DA0121B24AC0B290
:10276C00902303FB00F3D1540021AF4AC0B2902355
:10277C0003FB00F31A4451600021AB4AC0B2902312
:10278C0003FB00F31A4491600021A74AC0B29023C6
:10279C0003FB00F31A44C2F88C10002189B2802983
:1027AC000BDAA14AC0B2902303FB00F31A4489B29E
:1027BC000A4400231373491CF0E7401CCAE70020AD
:1027CC00C0B2402818DA0021924AC0B20C2303FB95
:1027DC0000F3D15000218F4AC0B20C2303FB00F34D
:1027EC001A44117100218B4AC0B20C2303FB00F375
:1027FC001A449160401CE3E786488C49086000202D
:10280C008B4908600FF2F1108A490860704780B557
:10281C0088480068804701BD2DE9F24F82B0050061
:10282C009346029C5FF000085FF080090298002834
:10283C0001D100208BE00298B0FBF9F08DF800007C
:10284C0002980299B1FBF9F109FB1100002804D0A0
:10285C009DF80000401C8DF80000714801789DF82F
:10286C0000004118212907DB7148006850F0010075
:10287C006F49086000206AE0002C67D072B6684887
:10288C000078401C6649087062B6654800781D28BF
:10289C0006DB6748006850F002006549086005E0F7
:1028AC006348006830F00200614908605E48824667
:1028BC009AF80000002802D11AF1900AF8E70020DB
:1028CC008AF800001AF104000600A14503D2C8469C
:1028DC00B4EB090402E0A046002004005148006853
:1028EC003060C6F804800020C6F8880000207168AB
:1028FC00884208D29BF8001006EB000211721BF103
:10290C00010B401CF3E772B62868002801D12E6039
:10291C000AE028680700D7F88800002802D0D7F80A
:10292C008870F8E7C7F8886062B63E48006800F027
:10293C0049F83C480068401C3A490860394800682E
:10294C00002899D101203749086095E73068BDE827
:10295C00FE8F0168002906D13549096851F0040140
:10296C00334B19601FE030490A00111D036899426E
:10297C0004D031498A4201D09032F6E72E498A427E
:10298C0006D12B49096851F00801294B19600AE05E
:10299C000168D1F888100160012111702049097873
:1029AC00491E1F4B197070471A4A1368834204D092
:1029BC00194B9A4201D00C32F7E7174B9A4200D0D0
:1029CC00117170471949096808600121174A12688A
:1029DC00117112490968154A126891601349096806
:1029EC000C31124A1160114909680B4A914202D10B
:1029FC0008490E4A1160704710480068401E0F4984
:102A0C0008600E480068002803D142F210700B4990
:102A1C00086070478024002080270020782F002039
:102A2C0029300020902F002080120020942F0020AD
:102A3C00882F00208C2F002080240020680200208A
:102A4C00012210F01F018A40DFF8D41440B20300B9
:102A5C005B0941F823207047012210F01F018A40C6
:102A6C00DFF8C01440B203005B0941F82320704723
:102A7C002DE9F04704002078012802D0022810D05C
:102A8C001FE0DFF8A4040500502006004FF40C6092
:102A9C000700082080467FF0080081461A208246F5
:102AAC0011E0DFF888040500502006004FF40C609C
:102ABC000700082080467FF0080081461A208246D5
:102ACC0001E0002049E02879C00701D5002044E04E
:102ADC00DFF85C040168012295F922008240114361
:102AEC00DFF84C0401606068686160882884A06825
:102AFC00A861E068E861686850F0010068602868C7
:102B0C000660286847602868C0F808802868C0F804
:102B1C000C902868C0F820A060682968C1F80001F2
:102B2C006068401C2968C1F8100101202968C1F8AF
:102B3C00040101202968C1F8140140F20110296830
:102B4C00C1F8200195F9220040B2FFF785FF95F9F5
:102B5C00220040B2FFF774FF2800BDE8F08770B583
:102B6C0082B005000E008DF800606A46012115F157
:102B7C000800FFF751FE0400002C06D0DFF8B80364
:102B8C000068002801D500F0A5F8200076BDF8B546
:102B9C0006000D001700002D01D1002010E03A00B6
:102BAC00290016F10800FFF737FE0400002C06D0B0
:102BBC00DFF884030068002801D500F08BF82000B2
:102BCC00F2BDDFF87803DFF8601308600020DFF84F
:102BDC00581388600020DFF8501348610020DFF89C
:102BEC00481308840020DFF8401388610020DFF8C8
:102BFC00381348600820DFF8301381F82200DFF822
:102C0C004003DFF8281308600020DFF820138860E9
:102C1C000020DFF8181348610020DFF81013088437
:102C2C000020DFF8081388610020DFF800134860EB
:102C3C000D20DFF8F81281F82200DFF80803DFF826
:102C4C00081308600020DFF8001388600020DFF80C
:102C5C00F81248610020DFF8F01208840020DFF839
:102C6C00E81288610020DFF8E01248600E20DFF8DF
:102C7C00D81281F82200DFF8D402DFF8D4120860F1
:102C8C000020DFF8CC1288600020DFF8C412486105
:102C9C000020DFF8BC1208840020DFF8B412886131
:102CAC000020AB4948600F20A94981F822009E48BA
:102CBC00A84908600020A84908600020A7490870AE
:102CCC000FF271109B490860704780B599480068F5
:102CDC00804701BD80B5A048006850F001009E49B6
:102CEC00086091489B4908609B480078C00710D544
:102CFC009B489C490860FFF7E8FFFFF788FD9A485E
:102D0C000068009001216846FFF732FC0028EBD1E7
:102D1C00F8E701BD80B58448944908609448006880
:102D2C00401C9349086000F00DF801BD80B57F4848
:102D3C008E4908608F480068401C8E49086000F07E
:102D4C0001F801BD80B5894800680068006900077A
:102D5C0030D5864800680068406900072AD583484A
:102D6C0000680068D0F81001401C804909680968A7
:102D7C00C1F810017D4800680068D0F810017B494B
:102D8C0009684969794A1268128C1144884207D142
:102D9C00764800684069754909680968C1F81001EE
:102DAC0072480068C0698047012070490968096849
:102DBC00C1F814016D48006800680069C00638D578
:102DCC006A48006800684069C00632D5032167482C
:102DDC00006880680068FFF7E7FD64480068083009
:102DEC00FFF7B7FD61480068406830F400105F4998
:102DFC00096848604FF400705C4909680968C1F8BB
:102E0C0020011020594909680968C86053480078A6
:102E1C00002805D051480078401E5049087008E041
:102E2C005548FEF73BFA4C48006850F000704A4990
:102E3C00086001BD80B5474800688068002840D014
:102E4C0044480068406880023BD402214148006835
:102E5C0080680068FFF7A8FD3E480068406850F4A1
:102E6C0000103C49096848603A480068806808309E
:102E7C00384909680968C1F8080136480068806853
:102E8C004068344909680968C1F80C0110203149BF
:102E9C0009680968886031480078401C2F4908701F
:102EAC002E480078062805DB2B48006850F080601F
:102EBC00294908604FF48070264909680968C1F8EF
:102ECC0020012448006890F82200082806D00D281C
:102EDC0008D00E280AD00F280CD01DE013481D492D
:102EEC0008601CE018481B49086018E0184819498C
:102EFC00086014E00C48174908600F480068002867
:102F0C0009D516480078002805D1134800684008F8
:102F1C0040001149086002E003480E49086001BDF9
:102F2C0000E100E080E200E0202E0020442E002092
:102F3C0010040E40E82F0020802F002000060E40C9
:102F4C000000094000400940682E00200080094024
:102F5C008C2E0020F02F0020EC2F00202C30002095
:102F6C00010000A550120E40782F0020F42F0020F5
:102F7C00F82F0020FC2F002088500800DFF8542385
:102F8C00C0B202EBC0025279012A0BD1DFF8482300
:102F9C00DFF84033C0B203EBC0031B7902EB8302B2
:102FAC0011000AE0DFF83423DFF82833C0B203EB5A
:102FBC00C0031B7902EB83021100DFF81823C0B2A7
:102FCC0052F830200A600022DFF81433C0B203F844
:102FDC0030207047BF4AC0B202EBC0025279012ABE
:102FEC0009D1BE4ABB4BC0B203EBC0031B7902EB49
:102FFC008302110008E0B84AB64BC0B203EBC00321
:10300C001B7902EB83021100B24AC0B252F8302095
:10301C000A600022B24BC0B203F830207047B149AD
:10302C00AC4AC0B202EBC002127901EB8202136807
:10303C00A849C0B251F830104B4013600021A84B86
:10304C00C0B203F8301070470222A54BC0B203F88F
:10305C003020A34AC0B202EBC0025180A04AC0B2D9
:10306C0002EBC002918001229D4BC0B203EBC00366
:10307C009A7170472DE9F04182B04FF47A664FF4A3
:10308C00FA77F01B1421B0FBF1F80024E4B20B2CFE
:10309C0006DA14212000C0B2FFF7D6FF641CF5E756
:1030AC0014200500EDB2002D2CD01424A4B2002C59
:1030BC000CD08D480068009001216846FFF758FA43
:1030CC000028F9D000F060F8641EEFE7EDB2142D83
:1030DC0005D1C8216846FFF74BFA0028F9D000202B
:1030EC00C0B20B2808DAEDB2691E7D4AC0B202EB01
:1030FC00C0025180401CF3E7B6EB080618EB07073B
:10310C006D1ECFE700F040F8C8216846FFF730FA93
:10311C000028F9D00020C0B20B2818DA0021704A20
:10312C00C0B202F8301000216D4AC0B202EBC002EE
:10313C00518000216A4AC0B202EBC002918000218A
:10314C00674AC0B202EBC0029171401CE3E7082051
:10315C00FFF714FF0920FFF711FF0A20FFF70EFFFE
:10316C006248006850F00100604908606048FEF752
:10317C0095F80FF215005F490860BDE8F38180B542
:10318C005C480068804701BD38B50025EDB20B2DB9
:10319C0080F29E805248EDB210F8350001282BD1F8
:1031AC004F48EDB200EBC5008088401E4C49EDB293
:1031BC0001EBC50188804A48EDB200EBC500808860
:1031CC00002819D147484349EDB201EBC5010979F3
:1031DC0000EB8100040021683E48EDB250F8350048
:1031EC00414021603E48EDB200EBC50040883C49AF
:1031FC00EDB201EBC50188803948EDB210F835000D
:10320C00022863D13648EDB200EBC500B0F90200DC
:10321C00002804D12800C0B2FFF7DCFE51E0304892
:10322C00EDB200EBC500B0F90200142804D128005F
:10323C00C0B2FFF7A3FE44E02948EDB200EBC50095
:10324C008088401E2649EDB201EBC50188802448D8
:10325C00EDB200EBC5008088002832D12048EDB2D9
:10326C0000EBC5008079012817D12800C0B2FFF708
:10327C00B1FE1B48EDB200EBC500B0F90200D0F175
:10328C0014001749EDB201EBC501888000201449E8
:10329C00EDB201EBC501887113E02800C0B2FFF755
:1032AC006DFE0F48EDB200EBC50040880C49EDB245
:1032BC0001EBC501888001200949EDB201EBC50184
:1032CC00887102200649EDB201F835006D1C5DE7EE
:1032DC0031BD0000344C0800300C0E40340C0E4054
:1032EC00202C0020380C0E40782F0020842F00203A
:1032FC00B0510800742F002062F30F2262F31F42BA
:10330C00401810F0030308D0C91A1FD3DB0748BFBD
:10331C0000F8012D28BF20F8022D130030B41446FC
:10332C001546103928BF20E93C00FAD8490728BFB8
:10333C0020E90C0048BF40F8042D890028BF20F874
:10334C00022D48BF00F8012D30BC7047C91818BFBA
:10335C0000F8012DCB0728BF00F8012D7047FEE7C0
:10336C000749086808B1002070470648C008C0002B
:10337C0008600549C908C900091A0160704700BFF7
:10338C00183000200700082000400820012210F00F
:10339C001F018A40DFF8641640B203005B0941F854
:1033AC0023207047012210F01F018A40DFF85016CD
:1033BC0040B203005B0941F8232070472DE9F0412E
:1033CC0005000E0017009846DFF838060078202814
:1033DC0001D1002067E03A003100DFF83C06FFF72E
:1033EC001BFA0400002C01D100205CE072B6DFF85F
:1033FC001806006804600120DFF80C160968487391
:10340C00DFF8040600684660DFF8FC050068057309
:10341C00DFF8F405006880F80E800020DFF8E8156E
:10342C0009688860DFF8DC050078401CDFF8D415EB
:10343C000870DFF8D40500681030DFF8CC15086090
:10344C00DFF8C4050068DFF8C415884204D1DFF842
:10345C00C005DFF8B41508600020DFF8AC1509686A
:10346C0048730020DFF8A015096848600020DFF8D9
:10347C009815096808730020DFF88C1509688860B6
:10348C000220DFF88415096888730020DFF87815AE
:10349C000968086062B6DFF87C050068002801D571
:1034AC0000F09EF82000BDE8F08180B5DFF86C05D7
:1034BC00006850F48020DFF8641508600020DFF805
:1034CC0060150860DFF84805DFF83C150860DFF888
:1034DC004005DFF8501508600020DFF8281508704B
:1034EC000020C0B220282ADA0021DFF82425C0B23F
:1034FC0003011A4451730221DFF81425C0B20301F1
:10350C001A4491730021DFF80825C0B203011A4454
:10351C0091600021DFF8F824C0B20301D1500021E2
:10352C00DFF8EC24C0B203011A4451600021DFF82B
:10353C00E024C0B203011A441173401CD1E7DFF838
:10354C00E804DFF8E81408600020DFF8E0144860B5
:10355C000020DFF8D81488608020DFF8D0140968C8
:10356C000860DFF8CC040068DFF8C814086001219B
:10357C00DFF8C004FEF7FCFF0028F8D0DFF8B80431
:10358C00DFF8A814096808612420DFF8A014096882
:10359C0008600020DFF89414096848604FF48070CC
:1035AC00DFF88814096848627FF48070DFF87C14B7
:1035BC00096888621220FFF7F5FE1220FFF7E6FE7D
:1035CC000FF23910DFF874140860DFF87404FDF79B
:1035DC0065FE01BD80B5DFF864040068804701BD5D
:1035EC0080B5DFF83C04006850F00100DFF83014BF
:1035FC000860DFF82C040078C00717D5DFF8440406
:10360C00DFF844140860DFF8340400688047FFF7E3
:10361C00FEF8FDF757FFDFF8180400680090012151
:10362C006846FEF7A5FF0028E3D1F8E701BDDFF8F7
:10363C001C0400680100DFF8180400680140C8058C
:10364C0019D5DFF8DC03006850F08070DFF8D02368
:10365C0010604FF40050DFF8D423126890624FF4DE
:10366C000070DFF8C8231268C2F820010FF22D3069
:10367C00DFF8C8231060880425D54FF40050DFF81C
:10368C00AC23126890624FF40070DFF8A02312682C
:10369C00C2F82001DFF894034068406801280AD082
:1036AC00DFF880030068807B002804D10220DFF85B
:1036BC007C2312681060DFF87403806840084000B7
:1036CC00DFF868239060C80415D54FF48050DFF8FC
:1036DC005C23126890620220DFF850231268C2F853
:1036EC0020010220DFF84423126810600FF205203D
:1036FC00DFF84823106070470000000010B5DFF8B9
:10370C0004030078002800F0AC80DFF81803006890
:10371C00407B012859D1DFF80C0300680068DFF802
:10372C000C134968096888420BD0DFF82803FDF7B1
:10373C00B5FDDFF8F802806850F08070BB498860F6
:10374C008FE00221B94840680068FFF72DF9B748AF
:10375C00806850F00500B5498860B2480068007B6D
:10376C0000040400B148006840682043AF49096870
:10377C004860AE4840680830AC490968C1F8080197
:10378C00AA4840684068A9490968C1F80C014FF47F
:10379C000050A649096848624FF48070A349096833
:1037AC00C1F82001A14840684068012808D19D4813
:1037BC000068807B002803D102209C4909680860BE
:1037CC000FF2A1009D4908604BE096480068407BD1
:1037DC00022846D193480068007B000450F48050C6
:1037EC00040092480068406820439049096848608A
:1037FC008E48806850F002008C49886089480068C7
:10380C004068012808D103208849096808600FF234
:10381C00E5008A49086024E0824800688068834992
:10382C000968C1F800017F4800684068401E7F4964
:10383C000968C1F804014FF480507C49096848625A
:10384C0001207A490968C1F82001012077490968EB
:10385C00086077480068774908600FF27100774973
:10386C00086010BD80B57148007AC00719D40321D7
:10387C006E4840680068FFF797F86748FFF769F8EB
:10388C0068480068807B002804D10FF219006B494E
:10389C00086006E00120674908600FF2AD00674937
:1038AC00086001BD61480068006AC0070CD55F481C
:1038BC00806830F004005D49886001205D49086033
:1038CC000FF285005D4908607047000080B540F636
:1038DC00B8315848FEF74CFE002809D05048006813
:1038EC0050F080604E4908600FF2B10053490860F7
:1038FC0001BD00004D480068006A80070FD549489B
:10390C00006880684749096849680844474909685C
:10391C00096B00F8011C0FF2090048490860704758
:10392C0042480068006AC0070CD54048806830F0F7
:10393C0002003E49886001203E4908600FF20900F0
:10394C003E490860704700003A480068401E3949FB
:10395C0008603848006800281ED12A480078401EAC
:10396C00284908702F48006810302E4908602D48EF
:10397C0000682649884202D125482A490860214816
:10398C000078002805D126480068400840002449EA
:10399C0008603148294908607047000080B520480C
:1039AC000068C0011CD51E48006830F080701C49AE
:1039BC0008601E4840680068FDF78EFC2748FDF73C
:1039CC006DFC0621194840680068FEF7EDFF1248AF
:1039DC00FEF7BFFF1548806830F00500134988607A
:1039EC000F480068400102D51D48FDF757FC012027
:1039FC00104908601B481149086001BD00E100E056
:103A0C0080E200E02A300020A42F00208029002032
:103A1C0080270020802F0020E02E002010040E4074
:103A2C00A02F0020A82F002000400840DC2E0020F2
:103A3C00782F00209C2F00201D1D0200982F0020A5
:103A4C00C8510800010000A550120E402C4008403F
:103A5C00204008403C4F0800093708006850080017
:103A6C00604F08005539080097489849086070471E
:103A7C004FF40070964908609648974908600420F6
:103A8C00964908604FF480709549086095489649AE
:103A9C00086096480068C007FBD5934801689448B5
:103AAC000143914801609348934908608F4800682E
:103ABC008007FBD542F21100904908608B480068E2
:103ACC000007FBD542F212008C4908608748006859
:103ADC000007FBD58A48006850F4441088490860F8
:103AEC00824800684006FBD57047864886490860C6
:103AFC00864887490860874887490860874888490D
:103B0C0008600020874908605FF0FF308649086034
:103B1C00864887490860874887490860012087499B
:103B2C0008607FF001008649086000208549086024
:103B3C005FF0FF30844908608448854908605FF075
:103B4C004050844908605FF0F640834908600020CB
:103B5C008249086000208249086000208149086081
:103B6C0081488249086082488249086082488349BA
:103B7C0008608348834908600020834908605FF02F
:103B8C00FF30824908600020814908605FF0FF30F7
:103B9C00804908604FF4E0707F4908607FF4E07062
:103BAC007E4908607E487F4908607F487F490860ED
:103BBC007F488049086000207F4908607F48804921
:103BCC00086000207F49086000207F4908600020C1
:103BDC007E490860704700207D49086000207D49BF
:103BEC00086041F26F707C49086000207B490860D6
:103BFC0003207B490860704780B575480168794897
:103C0C000068091A012917D077480068401C7649CA
:103C1C0008607648006850F02000744908607448C9
:103C2C000068800708D57348FDF738FB6E480068BC
:103C3C00FDF752FBFDF742FB6548006869490860D7
:103C4C0001BD6D48006830F480106B4908606B480A
:103C5C00006830F00400694908606448006850F05E
:103C6C0080406249086061480068400001D530BF5F
:103C7C00F9E7704700206249086003206149086039
:103C8C0041F270706049086041F270705F490860E1
:103C9C0042F6E0605E49086042F6E0605D4908600B
:103CAC0003205D49086040F2DC505C49086040F23A
:103CBC00DC505B49086040F6B8305A49086040F661
:103CCC00B8305949086070470065FF1F54120E4008
:103CDC0000080E4073EDFC2710040E4040040E400B
:103CEC0000040E4019F0370020040E4068040E400A
:103CFC0000003701013F072028040E4030040E401D
:103D0C001C040E4007000384000C0E40F8FFFC7BE3
:103D1C00040C0E4001000184100C0E40FEFFFE7BD3
:103D2C00140C0E40200C0E40240C0E400006000417
:103D3C00500C0E40FFF9FFFB540C0E40640C0E406F
:103D4C00600C0E40A00C0E40A40C0E40000001882C
:103D5C00300C0E40340C0E40700C0E40800C0E409B
:103D6C00840C0E408C0C0E4057FFBF01000E0E4011
:103D7C00A80040FE040E0E40E0FFBF01100E0E40E6
:103D8C001F0040FE140E0E40200E0E40240E0E405E
:103D9C00500E0E40540E0E40640E0E40600E0E403F
:103DAC0000FC1F00A00E0E40FF03E0FFA40E0E400F
:103DBC000002A001300E0E40340E0E4018004000E0
:103DCC00700E0E40800E0E40840E0E408C0E0E4077
:103DDC00782F00207C2F002014E000E018E000E099
:103DEC0010E000E0682F0020642F0020802F0020BE
:103DFC004C2F00200850080070040E4010ED00E01D
:103E0C0000C0084000C208400CC2084010C2084064
:103E1C0004C2084008C2084020C208402CC2084016
:103E2C0030C2084024C2084028C20840012210F0C9
:103E3C001F018A40DFF8101340B203005B0941F800
:103E4C0023207047012210F01F018A40DFF8FC127A
:103E5C0040B203005B0941F8232070470100DFF8F2
:103E6C00F002C9B20C2202FB01F210444078012886
:103E7C0001D1012000E0002070470021B44AC0B2FB
:103E8C000C2303FB00F31A445170704710B500204B
:103E9C00C0B2042830DA0021AD4AC0B20C2303FBB7
:103EAC0000F3D1540021AA4AC0B20C2303FB00F347
:103EBC001A4451700021A64AC0B20C2303FB00F334
:103ECC001A4491700021A24AC0B20C2303FB00F3E8
:103EDC001A44D17000219E4AC0B20C2303FB00F39C
:103EEC001A44916000219A4AC0B20C2303FB00F3E0
:103EFC001A445160401CCBE75FF4003095490860D0
:103F0C0007209549086095480068040094480068AB
:103F1C0004430A20FFF796FF0B20FFF793FF0A20BC
:103F2C00FFF784FF0B20FFF781FF0FF28D008D4907
:103F3C0008608D48006850F002008B4908608B487F
:103F4C00FDF7ACF910BD80B586480068804701BD0F
:103F5C0030B404220023DBB2042B12DA844CDBB223
:103F6C0054F8334084420AD1814CDBB204EBC304D5
:103F7C0024790D00EDB2AC4201D11A0001E05B1CBA
:103F8C00E9E7D2B2042A14D07A4B1B680343794C6C
:103F9C00236001236E4CD2B20C2505FB02F5635550
:103FAC00754B1B686A4CD2B20C2505FB02F52C44F0
:103FBC00636030BC704700000021C9B204290EDADE
:103FCC006348C9B20C2202FB01F2805C002804D0C9
:103FDC000FF20D006349086001E0491CEDE77047E2
:103FEC0070B566485F4908600026F6B2042E80F270
:103FFC00AA8063485E49F6B201EBC601097900EB71
:10400C008100040053485A49F6B201EBC601097904
:10401C0000EB810005004E48F6B20C2101FB06F1C5
:10402C00405C002800F08D8056484E4908600A21FB
:10403C004748F6B20C2202FB06F21044001DFEF7B4
:10404C0097FA00287DD04A48F6B200EBC6004079BA
:10405C0000281AD120684649F6B251F8361031EAD8
:10406C000000002808D001203949F6B20C2202FBCE
:10407C0006F21144C87020E000203549F6B20C223B
:10408C0002FB06F21144C87017E020683849F6B2FA
:10409C0051F83610084208D001202D49F6B20C22F6
:1040AC0002FB06F21144C87007E000202849F6B262
:1040BC000C2202FB06F21144C8702548F6B20C2102
:1040CC0001FB06F10844C0782149F6B20C2202FB30
:1040DC0006F211448978884227D01D48F6B20C218B
:1040EC0001FB06F10844C0781949F6B20C2202FB18
:1040FC0006F2114488701648F6B20C2101FB06F149
:10410C0008448078012810D101201149F6B20C2204
:10411C0002FB06F211444870174800680C49F6B2CD
:10412C000C2202FB06F21144886000200849F6B20A
:10413C000C2202FB06F288540D48F6B250F83600F9
:10414C002860761C51E770BD00E100E080E200E0E1
:10415C00A02D0020400C0E40400E0E404C0C0E408A
:10416C004C0E0E40482F0020842F0020A452080033
:10417C0028500800440C0E40782F0020C53F080042
:10418C003C0C0E40ED3F080080B59C489A490860F5
:10419C00142099498873002097494860002096495B
:1041AC0008620020944948610020934988830020CC
:1041BC00914988610020904908610020904908606D
:1041CC000020904908600FF259108F4908608F4801
:1041DC00FDF764F801BD80B58B480068804701BDD0
:1041EC0038B5854800680069050083480068C069D7
:1041FC0010F0010015F00101C0B208424BD07E480E
:10420C00407B002820D17C48006940021CD57A48AC
:10421C00C08B401E7849C8837748C08B002813D1C7
:10422C007548006930F48000734908617248006970
:10423C0050F400007049086101206F4909688861D9
:10424C0002206D49096808606B480068806800F0BE
:10425C00FF0004006848007B012802D194FAA4F402
:10426C00240E6548806900680470634880690068A2
:10427C00401C6149896908605F48806900685E4933
:10428C0049695D4A928B1144884204D15A4840696D
:10429C0059498969086058480068C06980073DD54C
:1042AC00A8073BD55448406A401E534948625248BF
:1042BC00406A002815D05048806A401C4E498862DC
:1042CC004D48806A007804004B48007B012802D1DD
:1042DC0094FAA4F4240E2000C0B247490968C860BF
:1042EC001CE0022044490968886143480069800247
:1042FC0014D54148006930F400103F490861414829
:10430C00006850F002003F49086003213A48006AF7
:10431C000068FEF749FB3E48FEF71BFB31BD000071
:10432C00F8B53548006A002803D13348C08B002803
:10433C0061D03148006910F4C00F5CD12E48C08B9D
:10434C0000282AD02C48006950F480002A490861C2
:10435C002948858BAA26284847693200290038004D
:10436C00FEF7CAFF2448C08B2349486222484069A3
:10437C00214988622048806A00781F490968C86012
:10438C0001201D49096808601B480068806804000A
:10439C0003201949096848612DE002211648006A7A
:1043AC000068FEF701FB1448006950F40010124934
:1043BC0008611148006A40680F4948620E48006A5B
:1043CC0008300D4988620C48806A007804000A485D
:1043DC00007B012802D194FAA4F4240E0120064992
:1043EC00096808602000C0B203490968C86003204E
:1043FC00014909684861F1BDD02D002000800040C2
:10440C00B42F0020AC2F0020B02F0020E05108006A
:10441C00F02D002010B504240020FFF71FFD00280C
:10442C0004D00020FFF729FD002004000120FFF735
:10443C0015FD002804D00120FFF71FFD012004000A
:10444C000220FFF70BFD002804D00220FFF715FD1A
:10445C00022004000320FFF701FD002804D00320F4
:10446C00FFF70BFD032004002000C0B210BD00B507
:10447C0089B05FF0004043490860684642492222F7
:10448C00FEF722F86946002000F09DF80FF21500A7
:10449C003E49086009B000BD80B53C4800688047C3
:1044AC0001BD00003EB504240025684638490B22A6
:1044BC00FEF70AF8EDB2002D05D10720FEF75EFDE0
:1044CC000420FEF787FDFFF7A5FF0400E4B2002CE3
:1044DC000DD130480078002809D12E480078401CB6
:1044EC002C4908702C480078401C2B490870E4B209
:1044FC00012C0DD127480078012809D125480078D6
:10450C00401C2449087024480078401C224908703B
:10451C00E4B2022C0DD11F480078022809D11D48A5
:10452C000078401C1B4908701B480078401C1A4935
:10453C000870E4B2032C0DD116480078032809D179
:10454C0014480078401C1349087013480078401C2C
:10455C001149087010480078042801D10120050089
:10456C00EDB2012D0CD10720FEF734FD0420FEF72F
:10457C0005FD012000F012F86946002000F023F838
:10458C0037BD0000300C0E40844F08000C3000206A
:10459C00105308002E3000202D30002010B50400E0
:1045AC004C48447000234B4A02213C20FEF706FF86
:1045BC0049480068002805D500204849884201D2A6
:1045CC00401CFAE710BD70B504000D0054F08000DB
:1045DC00C0B2FFF7E3FF012006002878002806D0C0
:1045EC0028783F49F6B288556D1C761CF5E70023F8
:1045FC003B4AF6B231003C20FEF7E0FE70BD00B540
:10460C0089B001A83749D1E90023C0E9002303A8E8
:10461C0035491622FDF758FF0FF2E50033490860C3
:10462C004FF4007032490860324800683249086023
:10463C0028213148FDF79CFF0028F9D000208DF887
:10464C00000001236A4601213C20FEF7B7FE01233E
:10465C0001AA06213C20FEF7B1FE26480068264937
:10466C000860C8212448FDF783FF0028F9D00C20EE
:10467C008DF8000000236A4601213C20FEF79EFEC7
:10468C000820FEF77BFC0920FEF778FC0A20FEF7D9
:10469C0075FC40208DF8000001236A4601213C2066
:1046AC00FEF78CFE002303AA14213C20FEF786FEA5
:1046BC0010480068104908601048006850F010005D
:1046CC000E49086009B000BD80B5084800688047F5
:1046DC0001BD00001E300020802F0020A0860100AC
:1046EC003C02002028530800985108006C2F002031
:1046FC00300E0E40782F0020702F0020842F0020C9
:10470C007047FEE7012210F01F018A40414940B278
:10471C0003005B0941F823207047012210F01F01B0
:10472C008A403D4940B203005B0941F823207047A1
:10473C0010B50024E4B21E2C09DA200040B2FFF7B9
:10474C00E1FF200040B2FFF7E8FF641CF2E7002015
:10475C00C0B2082809DA3149C0B251F82010304AE9
:10476C00C0B242F82010401CF2E710BD2D48006882
:10477C0030F080402B4908602B480068401C2A49C7
:10478C000860294800684FF47A71B0FBF1F201FB24
:10479C001200002804D125480068401C23490860F9
:1047AC007047F8B522480068050015F40030040085
:1047BC00002C0ED0012006000027FFB2202F08DAB3
:1047CC00344203D000213000FFF7C2FB76007F1C7F
:1047DC00F3E70A20FFF7A1FFF1BDF8B51548006813
:1047EC00050015F007000400002C0ED00120060077
:1047FC000027FFB2202F08DA344203D0802130008A
:10480C00FFF7A6FB76007F1CF3E70B20FFF785FF75
:10481C00F1BD000080E100E080E200E048500800BB
:10482C0000E400E0802F0020782F00207C2F002057
:10483C004C0C0E404C0E0E4080B50020FEF7CAFB0F
:10484C000320FEF7C7FB0120FEF7C4FB0620FEF792
:10485C00C1FB0220FEF7BEFB0420FEF7BBFB0520CC
:10486C00FEF7B8FB0720FEF789FBFEE7012210F0EC
:10487C001F018A40404940B203005B0941F82320E4
:10488C007047012210F01F018A403C4940B20300DE
:10489C005B0941F82320704700B587B068463B4957
:1048AC001922FDF711FE3A483A490860FF203A49AF
:1048BC00086040F2011039490860394839490860EC
:1048CC0039483A4908600020C0B2082807D20FF2D4
:1048DC00F1012C4AC0B242F82010401CF4E7012030
:1048EC00294908701A20FFF7CCFF1A20FFF7BEFFEA
:1048FC006846FCF7D3FC2E48006850F020002C4989
:10490C0008600FF2C1002B49086007B000BD80B5EC
:10491C0028480068804701BD38B50025EDB2032D4D
:10492C0021D2254800681649EDB2495DC840C00740
:10493C0017D522481249EDB2495D50F82100040008
:10494C00200080B20F490E4AEDB2525D51F8221090
:10495C00884701210A48EDB2405781400E4801605A
:10496C0001E06D1CDAE70120074908705FF08060F8
:10497C000249086031BD000000E100E080E200E087
:10498C0000000020B02E002020300020A85008008D
:10499C000017040F04800A4014800A4064800A4007
:1049AC000100040068800A40FFFF0F0028800A40C5
:1049BC00842F0020F02E00201C800A4030800A40FA
:1049CC00704700007047FEE7012210F01F018A407B
:1049DC00294940B203005B0941F8232070470122AA
:1049EC0010F01F018A40254940B203005B0941F8D1
:1049FC002320704780B52348234908602348244965
:104A0C000860262023490860102023490860EF2005
:104A1C00224908600220224908600FF29D001849C3
:104A2C0008601720FFF7DBFF1720FFF7CDFF0FF211
:104A3C008D001C4908601C48FCF730FC1B480068C2
:104A4C0050F008001949086001BD80B51548006890
:104A5C00804701BD80B516480068C00607D51548CB
:104A6C000068401C134908600548006880471720FF
:104A7C00FFF7B5FF01BD000000E100E080E200E0BF
:104A8C000430002000081000C400084003C40C00CF
:104A9C00440008405C00084064000840680008407E
:104AAC00400008400030002028520800842F0020CD
:104ABC006000084008300020704700007047FEE797
:104ACC0080B53548006850F0004033490860FEF767
:104ADC00CBFFFEF7CDFFFFF708F8FFF7CBF8FFF79A
:104AEC0027FEFFF778F8FDF72EFEFEF76AF8FCF7C5
:104AFC0082FCFFF7CBF9FFF77DFFFFF745FBFDF7D6
:104B0C0092F8FEF7D2FCFFF7C7FEFFF778FDFEF731
:104B1C00B1FAFBF7E1FA00F049F8FFF7A8FC00F056
:104B2C0067F800F073F8FCF730FC1B48006820F0C5
:104B3C00004019490860194819490860FFF75CF8EA
:104B4C00FDF765FEFEF7C1F8FCF7BCFCFFF7FBF9BF
:104B5C00FFF77BFFFFF73FFBFDF7EBF8FEF73AFDA6
:104B6C00FFF7D5FEFFF7B0FDFEF709FBFBF7D9FB0E
:104B7C0000F02EF8FFF790FC00F03FF800F04BF837
:104B8C005FF0004007490860FFF75BF85FF00040FA
:104B9C0005490860CFE700BF802F0020010000A569
:104BAC0050120E40300C0E40340C0E4080B50D48A7
:104BBC000068400607D50C48FCF770FB0FF21D008F
:104BCC000749086003E00FF225000549086001BDA4
:104BDC0080B503480068804701BD000070470000A5
:104BEC00442F0020842F0020DC5208007047FEE781
:104BFC000FF2150003490860704780B50148006842
:104C0C00804701BD103000207047FEE70FF2150001
:104C1C0003490860704780B501480068804701BDB2
:104C2C00143000207047FEE70020000080010000D7
:104C3C000040000080010000000004008001000022
:104C4C00000001008001000000000800800100004D
:104C5C0000000200800100000080000080010000C4
:104C6C000000100080010000000400008001000022
:104C7C00000800008001000000100000800100000E
:104C8C000A0D496E697469616C697A6174696F6E39
:104C9C0020636F6D706C6574652E2054797065207F
:104CAC00656E2B63303020666F72206465627567A9
:104CBC00206D656E752E20204661696C65642074CC
:104CCC0061736B733A0A0D004C4544000000000000
:104CDC000000425554544F4E0000000044454255CC
:104CEC0047000000000054494D45520000000000F0
:104CFC004C4344000000000000004144430000000D
:104D0C0000000000414E54000000000000000000B4
:104D1C0019E050F8042BD30744BFA9F101039A18EA
:104D2C00091F0023042942F8043BF9D25FEA817C75
:104D3C00134604D54FF0000CA2F800C09B1CC90709
:104D4C0044BF0021197050F8041B0029E1D17047B1
:104D5C000A0D4E6F20737061636520696E20416E81
:104D6C007451756575654170706C69636174696FB8
:104D7C006E4D6573736167650A0D000010B50749C8
:104D8C0079441831064C7C44163404E00A68081D3A
:104D9C00114488470146A142F8D110BD0002000021
:104DAC001C020000416E7454783A206D73672061C8
:104DBC006C726561647920696E2070726F677265C0
:104DCC0073730A0D000000000A0D556E657870654E
:104DDC006374656420414E54206D6573736167651F
:104DEC002073697A650A0A0D0000000053686F771A
:104DFC0020646562756720636F6D6D616E64206CF5
:104E0C006973742020202020202020200000000026
:104E1C00546F67676C65204C45442074657374202F
:104E2C002020202020202020202020202020202076
:104E3C0000000000546F67676C65207379737465AC
:104E4C006D2074696D696E67207761726E696E672B
:104E5C00202020200000000044756D6D7933202047
:104E6C002020202020202020202020202020202036
:104E7C0020202020202020200000000044756D6D93
:104E8C0079342020202020202020202020202020A9
:104E9C002020202020202020202020200000000086
:104EAC0044756D6D79352020202020202020202075
:104EBC0020202020202020202020202020202020E6
:104ECC000000000044756D6D7936202020202020D4
:104EDC0020202020202020202020202020202020C6
:104EEC00202020200000000044756D6D79372020B3
:104EFC0020202020202020202020202020202020A6
:104F0C002020202020202020000000000A0D5379B2
:104F1C007374656D2074696D652076696F6C61744E
:104F2C00696F6E207265706F7274696E6720000015
:104F3C00545749207472616E736D6974206D65737A
:104F4C0073616765206F7574206F662073796E636B
:104F5C00210A0D005457492052782054696D656F11
:104F6C0075742E204D6573736167652064656C657F
:104F7C007465642E0A0D0000456E74657220612004
:104F8C00636F6D62696E6174696F6E206F66203439
:104F9C0020627574746F6E732E00000075FDFFFF38
:104FAC00B01D0000801200200000000077C2FFFF3F
:104FBC009A030000A0030000000000203A20756E48
:104FCC006578706563746564206368616E6E656C8A
:104FDC00206576656E740A0D000000000A0D54728F
:104FEC00616E736D6974206D657373616765207490
:104FFC00696D656F75740A0D000000000A0D2A2A90
:10500C002A20316D732074696D696E672076696F23
:10501C006C6174696F6E3A200000000000000200A1
:10502C0000000000010000008000000002000000F1
:10503C00800000000400000080000000F000F0F090
:10504C0000F0F0F0F0F05050503030F0F0F020F074
:10505C0020F0004040F0F0F0F010000020545749D0
:10506C00204E41434B2E204D657373616765206460
:10507C00656C657465642E0A0D0000000A0D5541BF
:10508C00525420636F756E746572206F7574206F47
:10509C00662073796E630A0D0000000041444331B1
:1050AC0032207461736B20696E697469616C697A02
:1050BC0065640A0D000000004669726D77617265C7
:1050CC002076657273696F6E3A20312E30300A0A81
:1050DC000D0000000A0A0D417661696C61626C6515
:1050EC0020636F6D6D616E64733A0A0D00000000F1
:1050FC0000F00CF8002801D0FFF740FE0020AFF3C1
:10510C000080FFF7DDFC00F00BF8FEE702490348D6
:10511C0001600120704700BF0000080008ED00E0AE
:10512C0000F000B80746384600F002F8FBE7FEE74F
:10513C0080B5AFF30080024A11001820ABBEFBE72C
:10514C0026000200416E7454783A2053454E207468
:10515C00696D656F75740A0D00000000416E745224
:10516C00783A206D657373616765206661696C655B
:10517C00640A0D000A0D414E54207472616E736DF9
:10518C006974206661696C65640A0D0052415A4F5E
:10519C00522053414D33553220415343494920202D
:1051AC00200000004C45442066756E6374696F6E78
:1051BC00732072656164790A0D0000005457492010
:1051CC005065726970686572616C205265616479B2
:1051DC000A0D000053504920506572697068657261
:1051EC00616C2052656164790A0D000053535020A4
:1051FC005065726970686572616C73205265616488
:10520C00790A0D00496E76616C6964205353502005
:10521C00617474656D70740D0A00000054696D65DD
:10522C00723120696E697469616C697A65640A0D02
:10523C0000000000416E7454783A204E6F20746F59
:10524C006B656E0A0D000000416E7454783A204E66
:10525C006F2053594E430A0D00000000416E7452EA
:10526C00783A2074696D656F75740A0D0000000042
:10527C004368616E6E656C20636C6F7365640A0DB8
:10528C0000000000414E54206661696C6564206228
:10529C006F6F740A0D000000427574746F6E207489
:1052AC0061736B2072656164790A0D004E6F206624
:1052BC0061696C6564207461736B732E0A0D000058
:1052CC00414E542076657273696F6E3A200000006F
:1052DC00414E54204150492072656164790A0D0099
:1052EC005363616E6E696E67200000000A0D447591
:1052FC006D6D79210A0A0D000A0D4C656420546508
:10530C00737420004C6F636B204F70656E2E000021
:10531C00AFF30080AFF30080FFF7EAFE3839147268
:10532C005E6D0000FEE7FEE7FEE7FEE7FEE7FEE748
:10533C00FEE7FEE7FEE7FEE7FEE7FEE7FEE7FEE739
:10534C00FEE7FEE7FEE7FEE7FEE7100701020300BB
:10535C004F4B0A0D000120024641494C0AD0154121
:10536C004E54206368616E6E656C206420756E61AE
:10537C00737369676E2018E0166D657373616765EA
:10538C00203078787820726573706F6E7365206446
:10539C0064281001636C6F18E300005810016F70E3
:1053AC006554100B496E697469616C697A696E6732
:1053BC00202130012E2E2E2C20346661696C656400
:1053CC002E20486F737420494F73207365742074BA
:1053DC006F2048695A2E0D0A00000A0D2323206EF7
:1053EC00524635313432322050726F6772616D6DB6
:1053FC004520064D6F64653A206E6F4E100720668F
:10540C00756E6374696F6E62200474792023230AAD
:10541C00E06002024D003E904404666C6167733A92
:10542C0000300D4C656E677468206D69736D617426
:10543C00636815400B436F6D6D616E64206572720D
:10544C006F7227100800556E657870656374651768
:10545C00B00476656E740A0D145519100D0A0DF80A
:10546C004D08002B1508001C4E0800E308124008DC
:10547C001003D9160800640812C91052880852ACDF
:10548C000852D00852F40811AD10222A2A2A2052B0
:10549C00415A4F522053414D3355322041534349C9
:1054AC0049204C434420444556454C4F504D45C62D
:1054BC001004424F415244202D31E02004082008B2
:1054CC00000D0A3B61BE1404746F6F206C6F1D11CC
:1054DC0015170D0A3F200300656E2B63CD14020ACD
:1054EC00496E761D15A7412B14022E202055AF2195
:1054FC001F552E112444090A446562756720746196
:10550C00736B09363AA4F3194000012404102700E8
:0A551C00004F4EBA1108334646094D
:040000050008531D7F
:00000001FF
